:100000000C9462000C94CE030C94A7030C948A0009
:100010000C948A000C948A000C948A000C948A0038
:100020000C948A000C948A000C948A000C948A0028
:100030000C948A000C948A000C948A000C948A0018
:100040000C945D030C948A000C941B040C94F5032F
:100050000C948A000C948A000C948A000C948A00F8
:100060000C948A000C948A000000000023002600F3
:10007000290000000000240027002A0000000000E2
:10008000250028002B0004040404040404040202D4
:100090000202020203030303030301020408102007
:1000A0004080010204081020010204081020000012
:1000B0000008000201000003040700000000000027
:1000C0000000360511241FBECFEFD8E0DEBFCDBF44
:1000D00011E0A0E0B1E0ECE9FFE002C005900D9274
:1000E000A234B107D9F721E0A2E4B1E001C01D922A
:1000F000AD3EB207E1F710E0C2E6D0E004C02197C0
:10010000FE010E948505C136D107C9F70E944D0442
:100110000C94CC070C940000833081F028F48130DB
:1001200099F08230A1F008958730A9F08830B9F0B5
:100130008430D1F4809180008F7D03C08091800055
:100140008F7780938000089584B58F7702C084B53F
:100150008F7D84BD08958091B0008F7703C080911A
:10016000B0008F7D8093B00008950895CF92DF9204
:10017000EF92FF920F931F93CF93DF936C017A015D
:100180008B01C0E0D0E0CE15DF0581F0D8016D9184
:100190008D01D601ED91FC910190F081E02DC60119
:1001A0000995892B11F02196EECF7E01C701DF91D1
:1001B000CF911F910F91FF90EF90DF90CF90089516
:1001C000089580E090E00895FC01538D448D252F23
:1001D00030E0842F90E0821B930B541710F0CF96E1
:1001E000089501970895FC01918D828D981761F013
:1001F000828DDF01A80FB11D5D968C91928D9F5F5E
:100200009F73928F90E008958FEF9FEF0895FC0108
:10021000918D828D981731F0828DE80FF11D858DBB
:1002200090E008958FEF9FEF0895FC01918D228D4E
:10023000892F90E0805C9F4F821B91098F739927D3
:10024000089580E591E00E94150121E0892B09F4D1
:1002500020E0822F0895FC01848DDF01A80FB11DDD
:10026000A35ABF4F2C91848D90E001968F739927EC
:10027000848FA689B7892C93A089B1898C918370CA
:1002800080648C93938D848D981306C00288F389C3
:10029000E02D80818F7D80830895EF92FF920F93F0
:1002A0001F93CF93DF93EC0181E0888F9B8D8C8D22
:1002B000981305C0E889F989808185FD26C0F62E4E
:1002C0000B8D10E00F5F1F4F0F731127E02E8C8DE9
:1002D000E8120CC00FB607FCFACFE889F9898081D3
:1002E00085FFF5CFCE010E942B01F1CF8B8DFE0152
:1002F000E80FF11DE35AFF4FF0829FB7F8940B8F80
:10030000EA89FB89808180620AC09FB7F894EE89F0
:10031000FF896083E889F9898081837080648083A4
:100320009FBF81E090E0DF91CF911F910F91FF90EF
:10033000EF900895CF93DF93EC01888D8823C9F067
:10034000EA89FB89808185FD05C0A889B9898C91DE
:1003500086FD0FC00FB607FCF5CF808185FFF2CF79
:10036000A889B9898C9185FFEDCFCE010E942B0120
:10037000E7CFDF91CF91089580E090E0892B29F0BD
:100380000E94210181110C9400000895009769F0EA
:10039000FC0101900020E9F73197AF01481B590B90
:1003A000BC0180E591E00C94B60080E090E00895F7
:1003B0008F929F92AF92BF920F931F93CF93DF9331
:1003C000CDB7DEB7A1970FB6F894DEBF0FBECDBF95
:1003D00019A2423008F44AE08E010F5D1F4F842EAF
:1003E000912CA12CB12CA50194010E946305E62F4C
:1003F000B901CA0101501109EA3014F4E05D01C0ED
:10040000E95CD801EC93232B242B252B61F7C80141
:100410000E94C601A1960FB6F894DEBF0FBECDBFF5
:10042000DF91CF911F910F91BF90AF909F908F90D0
:1004300008958F929F92AF92BF92CF92DF92EF92E8
:10044000FF92CF9380914601811104C081E0809397
:10045000460102C0109246012FB7F89460914C01FA
:1004600070914D0180914E0190914F012FBF0E94DC
:100470009E066093420170934301809344019093E0
:100480004501609142017091430180914401909136
:10049000450120E030E64AE657E40E94500787FD18
:1004A00011C086E191E00E94C60160914201709105
:1004B0004301809144019091450120E030E64AE6F5
:1004C00057E410C082E291E00E94C60160914201AF
:1004D00070914301809144019091450120E030E00A
:1004E0004AE754E40E94FD05609342017093430182
:1004F0008093440190934501C0904201D090430104
:10050000E0904401F0904501A7019601C701B601B2
:100510000E94C207882319F08EE291E01AC04601BA
:100520005701E894B7F82FEF3FEF4FE75FE7C501BA
:10053000B4010E94C20781110FC02FEF3FEF4FE7B8
:100540005FE7C501B4010E94F80518162CF482E398
:1005500091E00E94C60176C02FEF3FEF4FE75FE4C6
:10056000C701B6010E94500718161CF486E391E0FB
:10057000F0CF2FEF3FEF4FE75FECC701B6010E94CE
:10058000F80587FDF3CF20E030E0A901C701B601EF
:100590000E94F80587FF09C06DE280E591E00E94A6
:1005A0004D01F7FAF094F7F8F0942AE037ED43EABA
:1005B0005BE3C701B6010E948C054B015C010E9400
:1005C0006F066B017C010E949E069B01AC01C50178
:1005D000B4010E948B054B015C014AE0C701B601E2
:1005E0000E94D8016EE280E591E00E944D0120E07A
:1005F00030E040E251E4C501B4010E9455074B01CF
:100600005C010E946F066B01E12CF12C4AE0C701EE
:10061000B6010E94D801C701B6010E949E069B0147
:10062000AC01C501B4010E948B0520E030E040E23E
:1006300051E40E9455070E946F0680E090E04AE076
:100640000E94D8018AE391E00E94C601E0EBF0E04D
:100650008491ECE9F0E0F490E8E8F0E0C491CC2378
:10066000A1F081110E948C00EC2FF0E0EE0FFF1F33
:10067000E859FF4FA591B491EC91EF2191E080E012
:1006800009F490E0692F782F02C060E070E0072E37
:10069000000C880B990B4AE00E94D8018EE391E090
:1006A000CF91FF90EF90DF90CF90BF90AF909F9051
:1006B0008F900C94C6010E94C7071F920F920FB62D
:1006C0000F9211242F933F938F939F93AF93BF93D8
:1006D00080914C0190914D01A0914E01B0914F013C
:1006E00030914B0123E0230F2D3720F40196A11DFB
:1006F000B11D05C026E8230F0296A11DB11D209350
:100700004B0180934C0190934D01A0934E01B09307
:100710004F018091470190914801A0914901B0910A
:100720004A010196A11DB11D809347019093480194
:10073000A0934901B0934A01BF91AF919F918F91CE
:100740003F912F910F900FBE0F901F9018951F9201
:100750000F920FB60F9211242F933F934F935F93F5
:100760006F937F938F939F93AF93BF93EF93FF9379
:10077000E0910201F09103010995FF91EF91BF9182
:10078000AF919F918F917F916F915F914F913F9129
:100790002F910F900FBE0F901F9018951F920F92E0
:1007A0000FB60F9211242F933F934F935F936F9344
:1007B0007F938F939F93AF93BF93EF93FF93E091BA
:1007C0000001F09101010995FF91EF91BF91AF9167
:1007D0009F918F917F916F915F914F913F912F9159
:1007E0000F900FBE0F901F9018951F920F920FB68B
:1007F0000F9211242F933F934F935F936F937F93A7
:100800008F939F93AF93BF93EF93FF9380E591E016
:100810000E942B01FF91EF91BF91AF919F918F911A
:100820007F916F915F914F913F912F910F900FBEEC
:100830000F901F9018951F920F920FB60F921124D0
:100840002F938F939F93EF93FF93E0916001F0912B
:1008500061018081E0916601F091670182FD12C023
:100860009081809169018F5F8F7320916A01821757
:1008700051F0E0916901F0E0E05BFE4F958F8093CD
:10088000690101C08081FF91EF919F918F912F911C
:100890000F900FBE0F901F901895789484B58260CA
:1008A00084BD84B5816084BD85B5826085BD85B514
:1008B000816085BD80916E00816080936E00109292
:1008C000810080918100826080938100809181000D
:1008D000816080938100809180008160809380009E
:1008E0008091B10084608093B1008091B0008160FC
:1008F0008093B00080917A00846080937A00809128
:100900007A00826080937A0080917A00816080937F
:100910007A0080917A00806880937A001092C100FA
:10092000C7EAD0E0FE01249103E910E0F8018491C8
:10093000882399F090E0880F991FFC01EE58FF4F33
:10094000A591B491FC01E458FF4F859194919FB714
:10095000F8948C91822B8C939FBFECE9F0E024916A
:10096000E8E8F0E084918823C9F090E0880F991FAF
:10097000FC01EE58FF4FA591B491FC01E458FF4FE4
:10098000459154919FB7F8948C91322F30958323E1
:100990008C93DA01EC912E2B2C939FBF89E192E08E
:1009A000909301018093000180916900836080939E
:1009B0006900E89AE0916001F091610182E0808332
:1009C000E0915C01F0915D011082E0915E01F09197
:1009D0005F018FEC808310926801E0916401F091D7
:1009E000650186E08083E0916201F091630180817E
:1009F00080618083E0916201F09163018081886071
:100A00008083E0916201F09163018081806880833E
:100A1000E0916201F091630180818F7D80839BEB87
:100A2000E92E90E0F92EB0904601F7018491FE0185
:100A3000C490F801D490DD20B1F081110E948C00A7
:100A4000ED2DF0E0EE0FFF1FE458FF4FA591B4919C
:100A50009FB7F8948C91B11003C0C094C82201C014
:100A6000C82ACC929FBF0E94BC01DDCFE0E5F1E037
:100A70001382128288EE93E0A0E0B0E08483958335
:100A8000A683B78388E091E09183808385EC90E032
:100A90009587848784EC90E09787868780EC90E048
:100AA000918B808B81EC90E0938B828B82EC90E039
:100AB000958B848B86EC90E0978B868B118E128EB3
:100AC000138E148E0895A1E21A2EAA1BBB1BFD01E2
:100AD0000DC0AA1FBB1FEE1FFF1FA217B307E4071D
:100AE000F50720F0A21BB30BE40BF50B661F771F75
:100AF000881F991F1A9469F7609570958095909555
:100B00009B01AC01BD01CF010895EE0FFF1F0590C1
:100B1000F491E02D09945058BB27AA270E94A30501
:100B20000C9416070E94080738F00E940F0720F067
:100B300039F49F3F19F426F40C9405070EF4E09560
:100B4000E7FB0C94FF06E92F0E94270758F3BA171A
:100B5000620773078407950720F079F4A6F50C94D3
:100B600049070EF4E0950B2EBA2FA02D0B01B90109
:100B700090010C01CA01A0011124FF27591B99F013
:100B8000593F50F4503E68F11A16F040A22F232F1F
:100B9000342F4427585FF3CF469537952795A7956F
:100BA000F0405395C9F77EF41F16BA0B620B730B16
:100BB000840BBAF09150A1F0FF0FBB1F661F771F87
:100BC000881FC2F70EC0BA0F621F731F841F48F43C
:100BD000879577956795B795F7959E3F08F0B0CFC5
:100BE0009395880F08F09927EE0F979587950895AC
:100BF0000E94DB0608F481E008950E9411060C941F
:100C000016070E940F0758F00E94080740F029F4C9
:100C10005F3F29F00C94FF0651110C944A070C9485
:100C200005070E94270768F39923B1F3552391F331
:100C3000951B550BBB27AA2762177307840738F04B
:100C40009F5F5F4F220F331F441FAA1FA9F335D0A8
:100C50000E2E3AF0E0E832D091505040E695001C5C
:100C6000CAF72BD0FE2F29D0660F771F881FBB1F16
:100C7000261737074807AB07B0E809F0BB0B802DF4
:100C8000BF01FF2793585F4F3AF09E3F510578F020
:100C90000C94FF060C944A075F3FE4F3983ED4F3AC
:100CA000869577956795B795F7959F5FC9F7880FF4
:100CB000911D9695879597F90895E1E0660F771F46
:100CC000881FBB1F621773078407BA0720F0621BD7
:100CD000730B840BBA0BEE1F88F7E09508950E9402
:100CE0002F0788F09F5798F0B92F9927B751B0F088
:100CF000E1F0660F771F881F991F1AF0BA95C9F7A0
:100D000014C0B13091F00E944907B1E008950C94ED
:100D10004907672F782F8827B85F39F0B93FCCF3A0
:100D2000869577956795B395D9F73EF4909580951C
:100D3000709561957F4F8F4F9F4F0895E89409C03C
:100D400097FB3EF490958095709561957F4F8F4FFE
:100D50009F4F9923A9F0F92F96E9BB279395F69514
:100D6000879577956795B795F111F8CFFAF4BB0F92
:100D700011F460FF1BC06F5F7F4F8F4F9F4F16C0F6
:100D8000882311F096E911C0772321F09EE8872F80
:100D9000762F05C0662371F096E8862F70E060E03C
:100DA0002AF09A95660F771F881FDAF7880F9695B5
:100DB000879597F90895990F0008550FAA0BE0E859
:100DC000FEEF16161706E807F907C0F0121613060D
:100DD000E407F50798F0621B730B840B950B39F44D
:100DE0000A2661F0232B242B252B21F408950A26B3
:100DF00009F4A140A6958FEF811D811D089597F9F3
:100E00009F6780E870E060E008959FEF80EC0895B0
:100E100000240A94161617061806090608950024D9
:100E20000A9412161306140605060895092E039453
:100E3000000C11F4882352F0BB0F40F4BF2B11F4C7
:100E400060FF04C06F5F7F4F8F4F9F4F089557FD26
:100E50009058440F551F59F05F3F71F04795880F28
:100E600097FB991F61F09F3F79F0879508951216BF
:100E700013061406551FF2CF4695F1DF08C016166B
:100E800017061806991FF1CF86957105610508941C
:100E90000895E894BB2766277727CB0197F9089533
:100EA0000E94DB0608F48FEF08950E9468070C94F7
:100EB00016070E94080738F00E940F0720F09523BC
:100EC00011F00C94FF060C94050711240C944A07AA
:100ED0000E94270770F3959FC1F3950F50E0551FAF
:100EE000629FF001729FBB27F00DB11D639FAA277F
:100EF000F00DB11DAA1F649F6627B00DA11D661FCE
:100F0000829F2227B00DA11D621F739FB00DA11DEE
:100F1000621F839FA00D611D221F749F3327A00DA8
:100F2000611D231F849F600D211D822F762F6A2F44
:100F300011249F5750409AF0F1F088234AF0EE0FA9
:100F4000FF1FBB1F661F771F881F91505040A9F7D6
:100F50009E3F510580F00C94FF060C944A075F3FBA
:100F6000E4F3983ED4F3869577956795B795F79512
:100F7000E7959F5FC1F7FE2B880F911D969587958A
:100F800097F908950E94DB06880B990B089581E07C
:0C0F900090E0F8940C94CC07F894FFCF8C
:100F9C00B500B500000000004D01B600E4009A0158
:100FAC001501F3000701496E206D696E7574653A81
:100FBC002000496E207365636F6E643A20006E6189
:100FCC006E00696E66006F766600203A20000D0A8E
:020FDC00000013
:00000001FF
